:20000000003C0120617E0100498A0100498A0100498A0100498A0100498A0100498A0100AB
:1C002000498A0100498A0100498A0100498A0100498A0100498A010009B400000F
:04003C0000000000C0
:2000400038B586B004468DF805104FF6FF720120ADF80220090ADFF8C05AADF8000002232D
:200060008DF806108DF8043069462A7820461BF06BF9162803D1297820461BF061F907B0D1
:2000800030BD3EB504000D461ED0DFF8900A006822461BF051F9FF2815D0002000900023C6
:2000A00001AA294620460FF043F860B99DF8040000F071F9C00606D59DF8040000F06BF9EC
:2000C00010F0040000D001203EBDFEB5164615244FF6FF7290420D4615D100208DF804007E
:2000E000DFF8347A9DF80400F97988421AD23246294600F03EF800B100249DF80400401CE3
:200100008DF80400EEE71BF013F950B100F09DFB40B99DF804003246294600F02AF8002432
:2001200000E014242046FEBD7CB50D46044606214C43164620346A460821204618F04CFDC2
:20014000A8B900F078F890B99DF80700002E14BF054320EA0505E9B2814206D08DF807508C
:200160006A460821204618F04BFD012076BD002076BD2DE9FC4106463446062388461546DE
:200180005C436A46082104F1200018F025FD00284ED100F050F800284AD100F028FA0400D0
:2001A00002D100F01CFA43E0397AE03689062246090E304618F010FD002835D1204600F05D
:2001C00052F85FEA08000ED13A7A9206120E0021204619F0CDFA38BB3A7A92000021204622
:2001E00019F0A2FF16E0214600F02AF858B9280004D02146002000F023F810B900F00FFC83
:2002000016E0A0F800808178A9420DD085700DB900210180204600F026F8397A8906224694
:20022000090E304618F0ECFC00F0F9FB012000E00020BDE8F6810622FF21684619F098BACF
:2002400070B5DFF8D4381D7A002200E0521CD4B2AC4206D231F824608642F7D101EB840096
:2002600070BD002070BD10B50021DFF8AC280AE030F82130DB4320F8213000EB8103491CB5
:200280009C78E4439C70137A9942F1DB10BD2DE9FE4FDFF884480646207A0F4691469A461E
:2002A00080001AF02BF95FEA000803D100F097F90A206EE00C9D02974FF0060B37461BFB4E
:2002C00007FB029A08210BF1200018F099FC8DF80400304600F09AF8227A00F07BF99DF888
:2002E000040000904246217A8906090E06F1E00018F086FC009E02990643206A082200EB1F
:20030000C70019F01BFFF5B110220021284619F02FFAC0B90299887900232A4600F00100C1
:200320001BF002F800281CBF9DF93C00002803D0DFF8EC17012008702A4610210BF12300B5
:2003400018F05EFC06435FEA090205D01C210BF1210018F055FC06435FEA0A0205D01C2166
:200360000BF1220018F04CFC06430D9A4AB110210BF1240018F044FC06430EAA00F032F96F
:200380000643A07D08B100F095FA40461AF0BEF8F0B2BDE8FE8FE0B5062358436A46082173
:2003A000203018F019FC10B99DF807000EBD00200EBDDFF86407007808210DF0BFBC38B56D
:2003C0000025DFF8544718E0206A06236B4300EBC5022033082198B218F0FEFB58B1206A21
:2003E0000622FF2100EBC50019F09EFE206A00EBC5010022CA716D1CEDB2E1798D42E3DBB9
:20040000A07D10B1BDE8314054E231BDF8B5DFF80817DFF81037C9791E680C460A4600E0B9
:200420002A46D5B23DB1551ED2B2324412F8017C8742F5D12C46E4B220464D1E07E0171865
:20044000165C7F7817541A680244401C5670A8421A68F4DBAC4204DABDE8F840052018F0CD
:20046000CFBBF1BD70B50024DFF8AC5600E0641CE879E3B283420BD22B6AE6B20622FF21B5
:2004800003EBC60019F074F90028F0D0E0B270BDDFF89426117839B1DFF8880601680C7835
:2004A000204600F013F8204670BD38B500200024DFF8645603E0E0B200F008F8641CEA793E
:2004C000E1B2914201D20100F5D032BD2DE9F84F8146CB46062313FB0BFB8EB00BF120055D
:2004E00001AA0821284618F077FB002869D10622FF2101A819F03CF9002862D100F077F8F5
:200500005FEA000803D100F06AF80A205BE01C22FF2103A819F008FE3A7A00F05BF80BF1F4
:2005200023060AAA1021304618F056FB60B91022FF210AA819F01CF930B99DF80A0001A971
:2005400000F001001AF0ECFE082200F03FF801AA0821284618F054FB054603AA1C210BF19B
:20056000210018F04DFB8DF8000003AA1C210BF1220018F045FB044603AA1021304618F08F
:200580003FFB064603AA10210BF1240018F038FB824603AA00F026F89DF800100D432543BC
:2005A0003543397A4AEA0505054389064246090E09F1E00018F024FB0543404619F0A6FFDF
:2005C00000E0002528460FB0BDE8F08FFF2101A819F0AABD9200FF21404619F0A5BD0420C5
:2005E00018F0C0B804210BF1250018F009BBDFF82875387A800019F081BF2DE9F84187B0F4
:20060000FF208DF80000DFF81055E87919F076FF040003D1FFF7E3FF0A2030E01022FF21DF
:2006200003A819F081FDEA79FF21204619F07CFD0622FFF7CBFF03AA1021022018F0E0FA53
:20064000064603AA1021032018F0DAFA06436A460121042018F0D4FA0746E9792246052020
:2006600018F0CEFA054601AA0621062018F0C8FA804600F0D4F93E432E4348EA060008B038
:20068000BDE8F081DFF890144088097818F054BAF0B5A9B006460D4614461AF049FE08B961
:2006A0001420A6E0A4220021684619F03DFDADF80060DFF86464F078F17B279A8DF80400E6
:2006C0005208307C8DF8A0004B0801F0010040EA420222F0020203F0010342EA43020809AD
:2006E00022F4807200F0010042EA0022480922F4007200F0010042EA4022880922F48062D2
:2007000000F0010042EA8022890822F0040201F00101707C42EA8102279202280CBF012014
:2007200000200DF1260778741AF0F6FD412807DB707C00B108209DF8991008438DF89900CE
:20074000F07CB8B10121B974202206F188010DF1390019F0F3FC202206F1A8010DF159004B
:2007600019F0ECFC202206F1C8010DF1790019F0E5FC00E0B874707B8DF8050090B1DFF88C
:20078000AC73102207F110010DF1060019F0D6FC9DF89900082805D1102239460DF1160027
:2007A00019F0CCFC307B8DF8260030B11022DFF880130DF1270019F0C1FC307948B1022DD9
:2007C00018BF032D03D1279840F002002790012100E000219DF899000143B0788DF89910AB
:2007E00000B1042001438DF89910684621461AF08FFD29B0F0BD2DE9FC41154615244FF655
:20080000FF72904288460ED10027DFF80C63F179F8B2884216D22A464146FFF785FC00B196
:2008200000247F1CF3E71AF083FD50B100F00DF840B99DF804002A464146FFF775FC00248B
:2008400000E014242046BDE8F681002100910023417901AA01F00101801D0EF069BC70B5EC
:2008600004460D4606204543082B88B0164603D1300758BF223500D521351C220021FFF76D
:20088000A6FE01AA1C21284618F0A6F980B99DF81E00C01F0A280BD29DF830000090F2088E
:2008A00001AB02F0010206F0010120461AF02CFD08B070BD38B51AF023FD0024964D0FE014
:2008C000286A0622FF2100EBC40018F051FF28B9286A00EBC40100201AF00EFD641CE4B2C9
:2008E000E8798442ECDB31BDF0B5924D0646686885B04FF6FF7438B9009502238E4A2146A5
:2009000001201AF0F5FC6860696819B30222FF2002920023039001930DF112072A880097D5
:2009200004AB304606F03CFC60B99DF810009DF8111000EB0122100004D0686841893046EE
:20094000FFF7C3FB2A886868002321461AF0CCFC686008B9012000E0002005B0F0BD3EB506
:200960000C46002501460095002301AA20460EF0DFFB38B99DF80400FFF70DFDC00601D4F3
:2009800001203EBD00203EBD2DE9F0416B4F3C6806468846154603E02089B04224D0246808
:2009A000002CF9D10C2019F0A9FD040019D0268184F80A8000202060E07245B1082128464D
:2009C00019F08CF8606018B900F029F80AE06060396811B93C6004E0014608680028FBD1A8
:2009E0000C600CB9152018E01AF07AFC08B1002013E00120E0722A4641463046FFF748FE31
:200A000004464548C06900281CBF4368002B03D000220021304698472046BDE8F0812046B0
:200A200019F074BD38B505464448046803E02089A84204D02468002CF9D1012032BDE07A16
:200A4000012807D100F05CF820B13348007804210DF074F9E17A491CE1722846C9B200F012
:200A600002F8002032BD38B5022904462A4D02D003290DD01EE042F6C921FFF7E1FA0200C6
:200A80001CBFE869002818D04368B3B105210CE042F6A621FFF7D4FA01001CBFE9690029DF
:200AA0000BD04B684BB102460421204601B0BDE830401847BDE8324000E031BD10B51F4AA1
:200AC0001468002101E0214624686CB123898342F9D1206800290CBF10600860606808B178
:200AE00019F014FDFFF79BFF002010BD024604201249096819B10B899342FAD1C87A704730
:200B00000E48006828B1006818B1C17A0029FAD17047002070470000B41C0020680F0020C9
:200B2000AF4000203C400020AE400020183E0020483E0020E83F002050DA010040400020CE
:200B400038B584B004461AF0F3FB0622417901F001018DF80E10811D02A819F0EFFA002060
:200B6000009000239DF80E1001AA02A80EF0E0FA9DF80400FFF7AAFC0546052120461AF0CC
:200B8000ABFB284605B030BD94B019F0A1F8DFF81C47DFF81CE794E8EF10246A8DE8E01037
:200BA000CDE9044E15F066F9002000240FF08AFFDFF800B70BF102000BF1040114F074F800
:200BC0000BF1140019F000FDDFF8EC76DFF8EC16CBF808000BF11C0041F288320023089062
:200BE000CDE9004714F008F9DFF8D406DFF8D416DFF8D4560022152300901020A847DFF8A0
:200C0000CC161020002202234FF00208A8470DF0A7FEDFF8BC16102001220126A847DFF8B8
:200C2000B41610204FF0FF32A84717F059FE4FF0FF3014F023FB03208DF83060DFF8986660
:200C40008DF8348001218DF8370004208DF8360005208DF83C00E4480E900CAA0020B04721
:200C60000DAA01200121B0470DF1370202200121B0470DF1360203200121B0470EAA0420C3
:200C80000521B04707F1100019F0CCF9DFF84C1607F114021020A8479BF80210DFF84066D9
:200CA0005020B047DFF83C1602461020A8479BF802105020B047DFF8301602461020A847AD
:200CC000DFF828161020FB2240F64803A847DFF820161020A8474FF6FD704FF6FD7715F0A6
:200CE00081F89BF802105020B0470346DFF80406DFF804160422CDE900801020A847DFF802
:200D0000FC05C02119F034FADFF8F015C02C03D0B81C08531834F9E74FF0FF3000214FF0F6
:200D2000000A14F033FADFF89015B04CDFF80896C860B81C80B20B900EADDBF8040000210F
:200D40004FF040424FF0FF330CF05AFB0028F4D08046CDF830A00DA80DF137010CAA16F022
:200D600026FE002840F0BF81BDF83400102840F0B5819BF802009DF83710814240F0AE819D
:200D80000C9E0B993088884200F0A981C0B2912800F0AA80B02800F0E480D02840F09E81B1
:200DA000B078072800F2E380DFE810F00800980198019801980107012201740170780028A4
:200DC00040F08C81B079717AB27AF37AADF83BA08DF83800B6F807008DF83E208DF83D1082
:200DE00008212A468DF83F30ADF8390000200CF033FDDFF820650BF10100DFF81C25DFF8F4
:200E00001C3500901020314610F0E4FD000640F04B820B20DFF80C759BF80120002300907C
:200E2000DFF8FC04394619F0BCFD000640F03C821C209BF80120394601230090DFF8E804C0
:200E400019F0AFFD000640F02F829BF80120DFF8DC141020922310F0BDFD9BF80120DFF851
:200E6000AC1419F053FC000640F01E82DFF8A824DFF8BC3410203146CDF800B010F0AAFD57
:200E8000000640F011820B209BF80020DFF8941400230090DFF89C0419F083FD000640F043
:200EA00003829BF80020DFF884141020922310F091FD9BF80020DFF8541419F027FC0006F4
:200EC00040F0F28117F030FBDFF8EC03012140F6B83200230130CDE90010DFF8E0130BF155
:200EE000400013F089FFF9E070783E284ED00F2852D010285CD00E2840F0F080B08841F2E4
:200F00000541884240F0EA80B0680178002940F0E580C778B0F8010018F0B2FA072800F21B
:200F2000DD807F2F00F0DA80DFF8D01300EB4000052301EBC006727C511C717406F10C0159
:200F40008F54727CB2FBF3F303EB8303D21A002372740022052A00F02E818F5601323B443D
:200F6000F8E7317906F108001AF0B2F9B6E0112840F0B480B088ADF83800B07B8DF84200FA
:200F80007089002800F099800020A0E0B0780C2840F0A4800C2007E0B08842F2320188425B
:200FA00040F09C8042F2320031460FF079F995E0082000210AF006FD90E0D349102010F020
:200FC00009FD10F0F80F03D1BB48807800284CD0CF4E9BF800201020314610F0FBFC9BF8F0
:200FE00001201020314677E00102030440E20100C549102010F0EEFCB7888246384618F0F0
:201000003FFA08282BD0BD49064600EB400001EBC0008068D0B1099757460A9019F0BBFD42
:2010200010B10A9819F0BBFDDDF828A0504619F0D8FD504619F045FDB04906EB460001EB7E
:20104000C000406819F03DFDBA46099F384617F0E7FC384615F0FEFB384614F0C3FE5FEACD
:201060000A6002D1089819F09AFDA84F9BF801200026102000230096394610F0ABFC9BF880
:2010800000201020394600234FF0000A009610F0A1FC23E0B2889A4910202B4610F09AFC8B
:2010A0000BF10C0018F064F8C0B1064600890FF081FF304619F005FD10E0ADF83EA0D6F83D
:2010C0000600CDF83A00B089ADF8400001208D498DF8430010202A4610F07CFC0C9E16B1A5
:2010E000304619F092FC5FEA48007FF526AEDBF8080019F089FB00287FF41FAEDBF808005F
:2011000018F0DAFD0028F2D0064600780138082849D8DFE800F005481548323B460F1E0077
:201120007068007840F0020102293CD1294615F0B1FB38E07068B0F801000FF03BFF36E0EC
:2011400070680168B1F1004F2DD0406819F0B9FC29E070684788384618F092F9072822D810
:20116000664900EB400001EBC000C07DD8B1734910203A4610F02EFC15E07068494600230E
:20118000C2881020009410F025FC0CE00220294615F080FB38B9032001212A460FF06AFD17
:2011A00001E017F0C1F9706808B119F08AFC304619F087FC9BE719B20522374691FBF2F10B
:2011C00017F8132F002A07F8011C7FF487AF49B20A9611F11E0F11DBDDF828E09EF8141082
:2011E00041F0020102293FF479AF00214FF0020C002306910121099102212FE011F1280FE6
:201200000FDBDDF828E09EF814100229FFF466AF002101234FF0010C069109930121002311
:201220001CE011F1320F0FDBDDF828E09EF8141000293FF453AF01214FF0060C0123069162
:2012400000210991042109E000210022DDF828E04FF0020C0223099104210692764616F812
:20126000152F624504D19EF81620012A3FF636AF224ACDF81CC032F830000A4616F0A0F947
:20128000012007993870307888421CBF0A9880F816A0099808B1317020E7069800280CBF35
:2012A00002200620307019E718F002FF943D00209040002070210020942500207D6D0100E7
:2012C0001C260020A13B0100D51901009569010009900100D56F0100750C0100BD90010032
:2012E00021840100D96C02102D6D02100D520210397F0110E027002069A600002835002058
:20130000F9DC0110D9570110EDA00100ED7401106502021099010110E7870100B02500201E
:2013200060270020BDCC0000E82500201DEF0110CC2500206B270020F97D01000D2B0210AF
:201340002DE9F84F012016F06FFA012816D1DFF8C4763878002119F0B7FF040004BF002008
:2013600017F000FA00202072201D0EF079FD05F039F8050003D1812019F0A2FF46E3012075
:201380006871072010F063FFDFF88C96DFF88C2699F80100401C89F80100A879A072402066
:2013A000397811700DF0A8F82860616D4A78206DD10620D5816C0A681179032908D0816C13
:2013C0000868007903280CBF0120002017F0CAF9206D816C0A6890F86C0002F10806012819
:2013E0001CBF002017F0BEF9216D486F296800F5B060C8604EE0C16E0A681179032908D0D4
:20140000C16E0868007903280CBF0120002017F0A9F9206DC16E0A6890F8980002F1080685
:2014200001281CBF002017F09DF9216DB5F87431D1F8A0002968DFF8E825C86096F82670E1
:20144000DFF8E005032F1FD8DFE807F002061014CA6802F5B06202E0CA6802F53472CA60A7
:2014600005F59A7201881187038811E0C86800F5355002E0C86800F6B870C86005F59A70C3
:2014800011880187138803E0C86800F5B060C860A5F8743106222868DFF88C75C16801F55F
:2014A0009071C160B11C3078C0F3801085F82E0105F12C0805F5947018F040FE042206F11B
:2014C0000E0105F1240018F039FE386895F806C000F10C03042206F10E0103EB4C1018F033
:2014E0002DFE032206F1120105F1280018F026FE3868AB7900EB4313032206F1120103F120
:20150000100018F01BFE707D88F80200022206F1160105F1300018F011FE022206F1180188
:2015200005F1320018F00AFE022206F11A0105F1340018F003FEB8F808006884022206F14B
:201540001C0105F1360018F0F9FD98F80200B8F80A10400088F802000901B8F80400A8F8C8
:201560000A104000A8F8040089B2B8F806004000A8F8060003046A8C521CDB0B5A438A42DC
:2015800001D280B238B9DFF8A404007880210CF0D5FB3B2133E105F12E01284619F08CFE5B
:2015A0000520A881284619F083FE052206F11E0105F1610018F0C2FD96F82300400988F810
:2015C000000019F071FE688205F59A72618D401AD08005F1610196F8230000F01F0088F873
:2015E0000F00284619F05CFE616D4A78206DD1064CBF816CC16E0868DFF83464002101717E
:201600004FF01C0AA97930681AFB01F141F6210242520021AB791AFB03F303445980AA7923
:201620001AFB02F210444160616DDFF808044A78D1060DD5DFF800148A7851060AD5DFF886
:20164000FC23138841F20A418B4208BFDFF8F003C5F89C01D5F89C11284688473268A97927
:2016600002F10E031AFB01F15854AA7930681AFB02F202440020D0733168A87901F10E028A
:201680001AFB00F0115C88F80D10606D4178CA061DD595F8960108B917F064F8A9793068F1
:2016A0001AFB01F1014495F89601421E0A74A87931681AFB00F00844002141743268A9793F
:2016C00002F112001AFB01F1002242522BE0A97930681AFB01F10144206D90F840200A7444
:2016E000A87931681AFB00F00844216D91F841204274206D3168AB79403001F112021AFBDC
:2017000003F34188D15205F5CB710078012200F0030082400A70226D92F84000800814BF33
:201720000120022008713168A879DFF818B301F1140239681AFB00F301EB4010D050A87963
:2017400031681AFB00F00844BF498161DBF814000078C1074CBF1F200F20DBF8141009789D
:201760008A0748BF40F02000DBF8141009784A0748BF40F04000DBF8141009780A0748BFB1
:2017800040F080003968AA7901EB421318723868A97900EB41120B2050723968AA7901EB6D
:2017A00042100421A94A81721078012806D13968A87901EB40120121D17207E0DBF8240001
:2017C0003968AA79407801EB4213D8723968A87901EB40121F2111763868AA7900EB42113A
:2017E00000204876A8790CF0A3FFAA79396852018850AA7939685201885820B907212846F7
:2018000017F0AEF902E19248AA79016801EB021019F042FDA87939688D4B01EB4012196832
:2018200001EB00105060A979386800EB41125168C8F83C10AA79520181587C48C8F8441010
:20184000042100780CF07AFA616D4A783068D10648BF02210AD4A9791AFB01F101440A7C80
:2018600002F00302022A14BF04210621B8F8042095F806C04FF4C8738A18698AAA6151434D
:20188000B1FBF3F35B1C6B611AFB0CFCD5F800E06044DEF80CC040F6C41101FB02C2D21AAC
:2018A000A2F5A8628260AA7930681AFB02F283189A682B689A6000F10C03AA791AFB02F28B
:2018C0000C309B5C03F0EF038354A87932681AFB00F002F10C030C321B5C03F07F031354C6
:2018E000A87932681AFB00F002F10C030C321B5C03F0F00343F002031354AB7930681AFB1B
:2019000003F31844427B02F0F00242F001024273AA7930681AFB02F2024490682B681861DC
:201920003868AB7998F802C000F11402686940005B0111FB0C0000F5F660D05095F8960176
:2019400004280DD13A68A87902F114034FEA401C143253F80C00AB795B0100F56160D05028
:201960003868AA7900F114034FEA421C53F80C20C5F83421AA7900EB4210C37C03F0F003F7
:2019800043F00403C374DBF830003A68AB79006802EB431CB8F8062042436423B2FBF3F3E4
:2019A0005943A1F59661CCF81C103868A97900EB4110C27E02F0F00242F00402C276A9795A
:2019C00030682A681AFB01FA00EB0A01516095F8FD00010703D50E21284619F059FC1D495B
:2019E000072008702046AA7989F8022015F0A6FB19488178880704D5AA790021204619F001
:201A000043FC28681549164A41618261BDE8F14F19F0D5B8D50F0020780E0020D70F002089
:201A2000900F00208E0F00209C0E0020C70F0020980E002081010210C00C00209A0F00205B
:201A40004DE50110F4D40100980C0020CC0F0020A40E0020C80F0020200E0020F9C70000E4
:201A6000020480802DE9F04F054687B0A978DFF8E066002710294FF0060A3CD8DFE811F0C0
:201A8000110063036303630363033C00CC0063036303C7021201FD00180363039902DE02F4
:201AA0005B036878002826D119F0EAFB044619F0E3FB054619F0DCFB8DF800002246102161
:201AC000022017F09DF82A461021032017F098F86A460121042017F093F89DF800000128A7
:201AE00018BF032807D1012019F0BEFB02460621062017F085F826E368780028FBD195F8A6
:201B00000CB06C8900900023E97801AA01F00101281D0DF00DFB00284FF0010872D19DF8D0
:201B20000400FEF738FC8146BBF1080F08BFB846307A800018F0E2FC050003D1042016F016
:201B400011FE00E3707802280CBF0120002000905B469DF804104A462046FEF780FE1422FC
:201B6000002102A818F0E0FA9DF804001AFB00F002AA1021243017F02FF8A8B91022FF2108
:201B800002A817F0F5FD78B99DF804001AFB00FA06AA04210AF1250017F01EF802AA09F012
:201BA0000101204619F05CFB317A9DF8040089062A46090EE03017F00FF898B92846FEF731
:201BC00052FBBA4609E005EB8000018819B18278204617F0B5FC0AF1010A317A5FFA8AF070
:201BE0008842F0D3B07A30B95FEA897003D53178204616F0A1FF9DF80400FEF707FC284677
:201C000018F084FC7078022805D1B8F1000F02D0204612F035FB96E2A888FEF74FFF19F03E
:201C20001BFB0028F7D1F07D012808D1FEF73DFCF279706AF775002118F076FA17E0307E12
:201C4000012803D1FEF7D9FC377610E000240AE0706AE5B2415D012904D1E0B2FEF736FC4B
:201C6000716A4F55641CE0B2F1798842F0D3502017F0F6FCFEF7A3FB65E219F031FB00283C
:201C80000CD0F06900281CBF0468002C07D0286900906B7B2A7B6989E81CA04752E26889EF
:201CA000012145E268780024002840F0DA80A879C10740F1D6800822002105A818F034FA87
:201CC000A88819F035FB040000F08E806F694FB30622002107F1110017F04AFD68B31022D2
:201CE0000021384617F044FDD0B9387C00F001084FF0000909F1010987F8119000200090AB
:201D000000230022414607F111000DF011FA00285FFA89F002D10028ECD101E000280CD14E
:201D2000002068610622607900F001008DF81A00A11D05A818F002FA1FE06F69EFB1387C8F
:201D400000F001008DF81A00062207F1110105A818F0F4F96079012805D10622A11D04F16C
:201D60000C0018F0EBF9062207F11101A01D18F0E5F9387C40F002006071A87941072079DD
:201D80004CBF40F0020000F0FD002071A9790A0754BF00F0DF0040F020002071A9799DF8DB
:201DA0001B00DFF8B083890801F0010108438DF81B004FF0FF09A979C90801F0010140EA38
:201DC000C1008DF81B00FF2469691E2779B31022684618F0B3F91021684619F039FA4FF04E
:201DE000000BDFF874930CE0FEF78AFE0028D5D0307804210BF0A2FFD0E70BF101005FFA4E
:201E000080FB99F80000834510DAD8F8001007FB0BF00A5CFF2AF0D0084400F10D0110225B
:201E2000684617F04DFE0128E7D15C46A1460020009000239DF81A1004AA05A80DF078F9DD
:201E4000B9F1FF0F5DD034285BD1707D30B3012857D1A888052119F03FFA0124A888FEF712
:201E60002DFE68780B2804BFA888FEF769FEF06900281CBF4368002B0FD06A78A888012190
:201E800098476878002808D1A879C10705D5F369A88822465C680321A0474CE1D8F80000FF
:201EA000002117FB09F90091002310F80910401C04AA48440DF03CF918BB9DF81000FEF7E3
:201EC00005FBF0B9FEF77BFAFEF7CCFA8DF81000E86800280CBF0021016900220190039289
:201EE000029105A9686900902B69AA689DF81000FEF7CDF90446A888FEF7F6FC200046D1A2
:201F00004BE00020009000239DF81A1004AA05A80DF00EF920B1FEF7A5FA8DF8100019E0B2
:201F20006869B8B19DF810001AFB00FA6A4610210AF1230016F050FE60B91022FF21684647
:201F400017F016FC30B99DF81A0005A900F0010019F0E6F99DF81000F179884227D2E86827
:201F600000280CBF00210169002201900392029105A9686900902B69AA689DF81000FEF7B9
:201F800086F90446A888FEF7AFFC200005D09DF81000FEF79BFAFEF712FA200008D1707AA0
:201FA0000028A8887FF45BAFFEF73CFD59E7152454E7687806281FD1A88819F0B9F9D8B1F8
:201FC000317D491E032917D8DFE801F0020E08134179A8880022FEF7D7FC0DE000220021EA
:201FE00040F2094003F03EFAA888052119F074F902E0A888FEF7A4FDF06900281CBF4368C0
:20200000002B03D06A78A888022198479AE000970023E97801AA01F00101281D0DF088F8B9
:202020000028F3D19DF804001AFB00FA05F10C0204210AF1250016F0E3FD83E0F0690028F9
:202040001CBF4368002B03D0A888002200219847707810B9A88805216AE0A88819F068F9BF
:20206000040070D0A87AC10712D5009700236179002201F00101A01D0DF05AF800281EBF91
:2020800060790028012803D0E868C0F3402028B1707C022807D1A87A010704D4A8880321C3
:2020A00019F0D2F84FE06179A88805F1080227E02F7BAD88284619F03BF9040042D019F064
:2020C0000FF900283ED100900023617901AA01F00101A01D0DF02CF828BB9DF80400FEF747
:2020E0005AF907F00C07042F11D0082F0BD00C2F0FD100F0090109290BD0617900222846D1
:20210000FEF742FC1EE010F0090F02D1F5E7C107F3D501220092A37C9DF804100246284604
:20212000FEF79DFB0EE070780028E6D10521284619F08AF806E0FEF7E3FC18B130780421EE
:202140000BF0FCFD0127384607B0BDE8F08F00BFB41C0020680F0020A94000202DE9F04F66
:2021600085B00D460295044615F8011B8DF801100022DFF8E81488788DF8002004F1660B37
:2021800018F074F901902C219DF80100DFF8D024032804F1F40604F5B07A04F59C7704F549
:2021A000C87804F2171900F0E180072800F01582082818BF092811D00C2800F0D9810F28E4
:2021C00011D0112800F04681182800F094811A2800F059811B2800F07E811CE229462046D8
:2021E00010F0AAFC17E2707ADFF8788481070AD40F2089F80200204619F022F8002872D177
:2022000098F80000DEE12878697800EB01223A82A878E97800EB01227A822879697900EB2B
:202220000122BA82A879E97900EB0122FA82287A3876697AA87A01EB00227A83E87A297BCC
:2022400000EB0122BA83687BA97B00EB0122FA83E87B297C00EB01223A84687CA97C00EBD9
:2022600001227A84E87C297D00EB0122BA84687DA97D00EB0122DFF8F003FA8401788A067D
:2022800058BF4FF01A0A13D504F5AA700490798B0391387E029021890191F88A0090BB8AC2
:2022A0007A8A398A204618F0C7FFE8B14FF01E0A707A41070AD40F2089F80200204618F0F3
:2022C000BFFF00280FD198F800007BE152460F21204618F0ADFFF88A0090BB8A7A8AA179F5
:2022E000504612F0DDFD74E104F18600798A81800023BA8AC2800222F98A01810270438091
:20230000A18EC91DABF81E10628E8188B1EB520F02BFC188A28E914202BF0089E18EB0EB80
:20232000111F21D09BF81000012804BF9BF811000F280CD09BF8150000281CBF9BF81100E7
:202340001A2804D00F218BF81A10FE217EE0FC21204618F09DFFF88A0090BB8A7A8A398AC8
:20236000A07918F061FF34E110216FE0707AC10709D431781A200129707002D1FF220D21A9
:202380003DE00D2162E000208BF800008BF80600012232712946082204F1B00018F040FF39
:2023A0000146022204F1B80018F03AFF04F1A80501460822284618F033FF07460821284625
:2023C00018F046FF04F19C0504223946284618F027FF0421284618F03BFF04F1A00018F067
:2023E0001BFF04F1980018F013FFA048018841F0800101803078012805D1FF220421204625
:2024000018F002FFE5E09BF811600F2E18BF142E07D00E2E18BF0C2E03D01A2E18BF162E3A
:2024200013D19BF81070204618F0EAFE0421204618F02EFF012F06D18BF81A601A2E14BF70
:20244000FD21FB2102E0314600E00421204618F01FFFBEE028788AF800001A286B788AF8F1
:20246000013040F0D8801068A679431C4E4300209855A379126811FB03F111440871A17991
:202480009AF80100C0E0A77910682E784F43074406F01F0317F8210FB60938B17878F040CF
:2024A000C00703D598F80600042805D120221A21204618F0BDFE8CE0FB701068A27911FBC9
:2024C00002F10144204681F82360002118F039FB0028F0D174E0A37910684B430344D888FF
:2024E00008B900265E701068A27911FB02F10144002008716DE069782878884204BF084014
:2025000010F0070F6DD19BF81100162806D198F80620A179134600200BF0AAFB022088F823
:202520000200012101984177012398F8060098F80A1088F80000BAF81C2018F05DFEBAF83F
:202540001810814209D3BAF81C2098F80A1098F80000012318F050FE0146AAF82E100121C9
:2025600098F8080040F0400088F80800397030E0707E012810D015F8011B317702222946B7
:2025800004F5897018F04CFE0146022204F58A7018F046FE012070769BF8060030B93D2166
:2025A000012289F8011089F8002012E0F07E002804BFB07E00280CD1204618F019FE30B9D9
:2025C000284800784FF480410BF0B8FB01E00120F07601218DF8001021E028780F2816D084
:2025E0001A2818D1A07913684843184400234370A079126811FB00F150180371F07A00F099
:20260000FB00F0721A20A17909F0F3FBE1E7707A00F0FD0070722046029918F0E5FD9BF823
:2026200011001A2815D19BF8120017281CBF1028FC280ED19BF81060204618F0E1FD012EE9
:2026400003BF1A208BF81A00FB211A21204618F01FFE9DF8000005B0BDE8F08F780E0020EB
:2026600018400020C70F0020200E00209C0F00202DE9FE4F04460020009080460CB916F0E5
:2026800071F804F1500641F6230037683880A7F8028002223A737A73694620460BF0E2FC08
:2026A00008B9072050E2009901B1B860B8682061DFF89804017884F8B8107068407A13F037
:2026C000E7FF25302076B87387F80F807168087D022804BF002016F045F87068007D0128C4
:2026E00002D10020002104E083280CBF0620022020213874797404F12405DFF854A4DAF88B
:202700003C0041690868697901EB41010844B0F801207A827068417848060AD5607DC106E0
:2027200004D5E07F40F04000E07702E040F04000607507F15C0904F1300089F80080A97EC9
:20274000890001F0040189F80010B866607DC10654D5726851788A060BD500F0FE006075A8
:202760007068417811F0030F03D1E07F00F0FE00E077607D18F034FDA0750023387CA27D1C
:20278000C0F38001521C00F0030018F025FDA0831E20A28B02F59B7393FBF0F01E2101FB3E
:2027A0001030C0B208B1C0F11E00821802F59B7262831E20A28B02F5967293B293FBF0F03F
:2027C00001FB1030A283C0B208B1C0F11E008018A08380B2E27D618B521E50434018608328
:2027E00007F13008608BB43080003866062089F80300E17F41F00801E17720E040F00100EF
:20280000607571684A78510744BF40F002006075607D18F0E5FCA0750023387CA27DC0F362
:202820008001521C00F0030018F0D6FCA083A08B00F59670A0830020386689F80300A17D10
:20284000207D61F3050007F18801207508700322607D48708A70A87E800000F0040040F076
:2028600003008870EA7ED20002F00802104388700020C8700021C7F89010A88BC0F30B0013
:20288000A8837168CA7D40EA0230A8830022617D01F0FE0120460AF071FF019700271DE0EA
:2028A0001C20784304EB000B01991C220BF1640017F044FC0BF16C00052101717F1CA28BE0
:2028C00092000260FFB2DAF83C104A6911686B7903EB43031944B1F801204281E07D401E4C
:2028E0008742DDDB019F20460EF03AFDE07D012809D013D3032809D03EBF04F164007860A5
:20290000C6F818800AE0C7F8048007E004F16400786004F18001B161C6F8348041F62400C7
:2029200038860021798607F13C08B868618B00EB8100B8630221822088F8000088F8011014
:20294000002194F8210088F8031000F03F0088F802007068807D012818BF022803D100F0A2
:202960007F00401E04E083280CBF06200220202188F8040088F805104FF0000BDAF83C0026
:20298000416908686A7902EB42021044B0F80110A8F80610C7F86CB07068417811F0030FC7
:2029A00020D018F015FCF866DAF818000078C1074CBF1F200F20DAF8181009788A0748BFFA
:2029C00040F02000DAF8181009784A0748BF40F04000DAF8181009780A0748BF40F0800021
:2029E00089F8140089F815B071685A4A897C01F0030189F81510A87E800000F00400014301
:202A000089F81510E87EC00000F00800014341F0100189F81510107838B199F8140000F0C0
:202A2000FE0041F0400189F8140089F81510E07F18F0D6FB84F82000204618F0C5FBE07F8A
:202A4000C10635D5706894F820204178521C88074EBFD21EE87F121898F80400C0F38001F5
:202A60000023D2B200F0030018F0B6FB28801E22288800F59670C0F11E0190FBF2F21E20F3
:202A800000FB021129717168487881074CBF00204FF49B702988401828806880B86B298887
:202AA0002A795218A63200EB82007867022002E0C7F874B0002089F8170004F13000C7F862
:202AC000800007F1840071684A78510707D504F13802026099F8150040F0200007E01E4956
:202AE0000A685168016099F8150000F0DF0089F81500A17F94F8200060F30501A17740F6CC
:202B00000B00A8F81000A8F812B0DAF83800008880007865DAF83800008800B1072088F8BF
:202B20001C00022088F81D0094F84510A8F81E1070684178880744BF0121A8F81E10009860
:202B400008B10AF031F90020BDE8FE8FA5400020F4D40100880E00206C0F00202DE9F843D6
:202B600005460C46480413D4A00024D4A0075CD460057ED4200500F10681200700F13B81EE
:202B8000600040F1F68010F0DFFE24F08044F0E017F086FDDFF81C140F6D3FB1D7E90A12D0
:202BA00002F0E04201F00A01891849D017F027FF24F48044DDE0BB48DFF8FC73016841F0A2
:202BC00080010160B878012804D1042014F074FF0020B87017F064FD0646042017F09CFD8A
:202BE000DFF8D8130A68904219D12A7EBAB1FA68AAB1DFF8C003806C002800F09780C16837
:202C000040F603020988914206D0C06840F604010088884240F08A8005F1140088E040F6A8
:202C2000C4120860C5E9042284E007F091FADFF88403006C002840F09D8024F0020498E0CB
:202C4000D7E90A65D7E90A12AA43B143C7E90A1217F0D5FEB8680028AAD056EA0500A7D064
:202C6000D7F808C03869B7F9301032462B46E0479EE717F015FD054616F048F9002800F0D4
:202C8000B780CC48876B002F00F0B280DFF828830420CB49002288F81800C64817F005F91F
:202CA00017F0C5FEC74817F09EFEC7480068006B8047C8F810000125042088F8025015F0FE
:202CC00093F9386990F82810C8F80400490703D5436A042100229847012011F081FDD8F8D8
:202CE000040045760CF0D6FED8F8040081680B461A465B684BB11E88A6F60306072EF7D8C9
:202D000005FA06F616F0830FF2D0537B03F0F003013353730023FD6853602D88A5F603051D
:202D2000012D00F28A80C8F810309FE005F1100013F0D4FA304617F062FE15F06DF978B1A2
:202D40002E6A28466FF4807100224FF00073B0479848806B10B110F0F7FD01E044F00204B3
:202D6000EE692846002100224FF08063B04724F0005434B1974821462830BDE8F84317F060
:202D800002BFBDE8F8838C4EB078012804D1042014F092FE0020B07015F03EF938B170685D
:202DA0006FF4807100224FF00073056AA847306950B185480068006B804732697168801A7E
:202DC000000BC860002030617A4D81490022284617F06BF802203076286C20B17D4802216F
:202DE000283017F0D0FE10F0AFFD24F40064C0E717F01DFE41E017F053FC054616F086F86F
:202E0000A0B1DFF8B48198F8000000070ED498F9000000280AD468460CF032FF08B1009819
:202E200020B1DFF8B49199F8610048B317F0FFFD10F08AFD24F008049BE7034633F8385F81
:202E4000A5B190F8445090F8456005F0F00580F8445006F0F005013580F8455000255360D7
:202E6000C5634587507B00F0F000507357480022C2610160012016F0C3FA24F4806478E76C
:202E800000260127602E0FD009EB0600817A31B18772407A07FA00F0C0B214F027FE20360B
:202EA000F0E700BFCC210840032088F81800454817F099FD17F0BBFD444F3E4D0022786982
:202EC00000207861F968F8602846444916F0EDFF3D480068006B8047D8F80C10D8F8202038
:202EE000411A02EB1130B0EB113F38BF4FF0FF3098F82410C8F8200021B1D8F80810B0EB00
:202F0000C12F20D916F08CFAB8B140F60900414621F83C0F002048804A7B02F0F0020132E5
:202F20004A730A7B02F0F0020A734860F8613960B8F83E0010F4406FFAD00020C8F82000E9
:202F4000012088F8240012F0E1FE2548002101600220002116F054FA022014F0ADFD102045
:202F60000BF0D8FF98F8010020B9D8F80400503017F005FE1B48807810B90D200BF0CAFFA2
:202F800098F8250028B1002088F82500052014F093FD002088F818001348C8F81C00022014
:202FA000B5F85610B5F85420914208BF07200FF07BFF3DE79C220020CC1F0020CC27002083
:202FC000E98E0100B83B00208C010010001004400DC40000D421002000390020AD3901004F
:202FE00000000460FCD80100FDBE00002DE9FE4F0546DFF82C04DFF82C640278002A4CD001
:20300000052A73D0062A00F08080072A18BF082A00F0F5800A2A00F0D681112A02D0132ABA
:2030200070D0F4E1DFF800341878002118F04CF904001EBF606D407810F00C0F2DD0216D66
:20304000C0064CBF886CC86E016801F108050622A91C684617F072F8287800F00F01052933
:203060001BD145096946C0F3801018F0A9F8002813D03168684618F09FF80746316804F1AF
:20308000380018F099F887420DD0606D4178C80604D440F2014018F08BF8BEE1607B40F0E5
:2030A00002006073B9E133681E2010FB07F6981906226946C01D17F041F8606D4178C806C7
:2030C000F0D5A17B0129EDD1DFF860038178480605D5E90703D4206D41F20A4102E0206D8B
:2030E00041F2044141804183418696E117F025FD0028FAD10FF0B0FC012802D0012018F0AA
:2031000053F88AE110F0DBFE87E1DFF82453286818F046F80400F7D020790328F4D1207AA6
:2031200000F00F01072937D1C24800684169497A4A1E11425CD0617A04F10A035A5C02F00C
:203140003F02252A54DBA17A8A09012A50D111F03F0F4DD0007C16F0DDFFE17ACA074CBFB5
:2031600004F1110204F10B028B0748BF921D0B0748BF921CC90648BFD21C12785209162156
:203180004A43AD498B180A31EB608A5A428699898186DA89C2862BE000F00F00082827D1D1
:2031A000A17A880924D119B3A2480168087C16F0B1FFE17A074688071AD5062201F00101D4
:2031C0005143601800F10C01684616F0B7FF207AC009694617F0F4FF50B1306800F10D01D7
:2031E000684617F0D9FF18B90521384615F0B8FC2079032802D0002015F0B4FA03E1DFF8F0
:203200003CB29BF802000024FF281BD016F082FF804608F16C09D9F8040017F0C1FF2A462E
:203220000179032901D011000CD08368197801F003008D06009003D50124009818B9BFE092
:203240001000FAD0E9E05D7803F1020A34B31AF8010B7B4B01902C2098F806C01F6810FB66
:203260000CFC67444FF0010E87F805E0002A1F6898F806E007F11A0C019F10FB0EFE07F0F6
:203280001F070CF80E7098F806701B6810FB07F01844019BC3F38113C3761AD100980328D2
:2032A00008F217171AD0ADB199F8000068B108F1F4000278012A0DD1594B1A78072A04D049
:2032C000082A04BFC078012804D13D21797001203870A2E05B4A1378012BFAD098F89400E7
:2032E00070B32D1FEDB253462A4640460EF0FAF900281EBF54490878002807D13D217970D7
:2033000001203870306817F043FF86E04F4801688847064698F80610DBF804204FF4D07062
:2033200041435018002280F8412108F59E700168807949080EF09EFE45490A683046904700
:20334000009803281ED043494869007882070DD598F89400002814BF281D28464A6911788E
:20336000CA0748BFC01C1AF8000000E0812089F808002A460098C3B29BF80200514605F0DF
:2033800029F91DE09AF800001CB11B2804BF022D01251C2803D230490B5C9D4205D0B8707F
:2033A0000721404617F074FF0AE01D48017808295146404602D117F07EFB01E0FEF7CEFEDA
:2033C000D9F8040020E0254C207830B3244D286817F0E6FE08B3017903291ED1017A8A06E5
:2033E00011D5807AE178C0F38112914202BF217900F01F00814206D1A078002801BF60789F
:2034000000280121A170286817F0BEFE05E0002015F0A8F9862017F053FFBDE8F78F00BF6A
:20342000C80F0020680F0020D50F0020C00C0020BC0A0020540F0020E0070020780E0020F8
:2034400018400020D20F0020AA400020382600203C260020F4D40100DCD70100983F002075
:20346000AC0C00202DE9F84FDFF82854A9780024FF2904BF002015F075F9A87816F04AFE93
:20348000054605F1680605F5C9773168086805F1900808B1EC8311E0B07B002804BFB07E4F
:2034A00000280BD198F80010002904BF3878002804D1287F012804BF688CE8832989E88BB8
:2034C0004118491C6981284617F05AFE01281EBFDFF8C4030178012903D12989EC83491CD6
:2034E00069814FF6FF79B07E01280DD1B28B6989288917F041FE38B1298968894A1C93B293
:2035000098422FD0B08B23E098F8000001280FD1B8F802206989288917F02EFE40B12989B0
:2035200068894A1C93B298421CD0B8F802000FE03878012816D17A886989288917F01CFE02
:2035400080B1298968894A1C93B298420AD0788892B2904206D04844688180B217F008FE98
:203560004844E883387801280FD128897988401C80B2884209DB7C793C71022038702346D8
:20358000A979224600200AF073FB05F59A71087920B128890021401CE9836881B07E0128E8
:2035A00013D12989B08B4B1C9BB298420DD1688117F0DEFD804605F12E008188308C01FB58
:2035C000080828460FF014F803E005F12E01B1F80480E88BB14B411C01FB08F82968CA68A2
:2035E00040F6C41909FB0822CA60AD49DA7BD30702D56B8A00220BE00A88521C93B2012BF1
:2036000003BF05F59A7CBCF8063003F2DC536B8A03FB08F34FF4C87CB3FBFCF35B1C6B6175
:203620000A8085F82000C5F818804FF01C0BDFF874A2AB79DAF8000000F108021BFB03F3BE
:20364000D1582A68116100F10801AB79D26868691BFB03F3121ACA50DAF80000AB7900F1DB
:2036600008021BFB03F3D1582A68916000F10C02A9791BFB01F10C30535C03F0F00343F05B
:2036800002034354DAF80010AB798A1C1BFB03F30021D152387908B915F064F8DAF80000ED
:2036A000AA7900F1100138791BFB02F240088854A879DAF800101BFB00F0084400214174DB
:2036C0003879042814D1A879DAF800101BFB00F001F110021031135C3A7A43EA82030B54A6
:2036E000AA79DAF800001BFB02F2024420205074DAF80010A87901F112021BFB00F0002151
:2037000011526949A8790A6802F114034FEA401C143253F80C00AB79D5F814C05B0100EBB9
:203720004C00D050B07E02280DD10A68AE7902F11403760114329859AB7995F82E605B01FB
:2037400019FB0600D05005F12E025448C37BD8075ED5DAF80000AE7900F108041BFB06F615
:203760000830A359AC791BFB04F4A3F5A8630351DAF80000AC7900F108031BFB04F4185979
:203780002B6898600446494800FB0848C3F810800868AE7900F1140476011430A359AC79B1
:2037A000640103F5F6630351387904280BD10868AE7900F1140476011430A359AC79640165
:2037C00003F5616303510868AC7900F1140364011859C5F83401364B186B0C68AE799288BB
:2037E000006804EB461742436424B2FBF4F409FB04F0A0F596692F48C7F81C900278012A60
:203800002FD10868A97900EB41120120D0722FE0042C0BD10868AE7900F1140476011430FF
:20382000A359AC79640103F561630351387904280CBF4FF4AA504FF4E6600B68AE7903F1F6
:2038400014047601A359181A938809FB03F3A3F516739842BFD30821284615F081F90120D2
:2038600016E0586A0968AA79407801EB4213D872A879DAF800102A681BFB00FB01EB0B001C
:20388000506007210C48017028460EF077FE0020BDE8F28F780E0020D10F0020980C0020FA
:2038A00096400020980E00209C0E00203CF6FFFFF4D40100CC0F0020C80F00202DE9F04F42
:2038C0000F46380589B018D5DFF8E4532888FF280ED0C0B216F01EFC040009D0A0791621AE
:2038E00017F042FC204616F00BFC204609F0D2FAFF20288087F40060D6E1F80504D511F0B5
:20390000A8F987F48070CFE1B80604D517F0E9F887F02000C8E1F8070CD516F0CFFD30B199
:2039200000218160DFF88C03006800B1804787F00100B9E1380704D517F0D5F887F00800C2
:20394000B2E1F8060FD50021002200230691059204910393029101920091022017F000FC57
:2039600087F01000A0E1B8070FD500210023069105910491039302910191009101223C20CB
:2039800017F0EEFB87F002008EE179074FF01E08C94EDFF828A340F1CD80C94800220021DF
:2039A00008920791007817F08FFC0446C5488178FF2904BF002014F0D5FEA07A16F0AAFBD4
:2039C00005469AF8000095F82E91002805F5947B69D0606D807A022818BF032807D13068F1
:2039E0000D3017F0B9FB10B93068C11D07915946484617F0E5FBA0B3606D807C3368002805
:203A000018BF012804D11946584617F0D5FB04E05A464946184617F08FFCFF2843D018FBAD
:203A200000F83068404406225946C01D16F086FB306810F80810404400F1010BC01D41F000
:203A4000020908900622616DC87A00F0010085F82E01606D00F10C0105F5947016F06EFBB6
:203A600021E05946484617F073FBE0B130685A46494617F061FCFF2815D018FB00F8306838
:203A800040440D3017F068FB58B9306840440D3017F062FB002801BF30684044417F01293F
:203AA00001D149F0020905F12C004B46017806914289120905920122698C0491C08808991A
:203AC000029140080390CDF800B0079801900020A97917F045FBD5F89C017B4988420CBF87
:203AE00000210121A87917F02FFB7848AB7902682C214B43134401221A73AB7904684B43E3
:203B000023445A73AB7904684B4323449A73AB7904684B432344DA73AB79006811FB03F181
:203B20000144002008740720A9790EF04AF887F00400B9E038060FD5002100230691059174
:203B40000491039302910191009101223B2017F007FB87F08000A7E0F8045DD55C49306814
:203B60000C680D3017F0F8FA002844D13068C11D0D3017F0E5FA3EE0606D4178480704F1DD
:203B80003E0526D5287802281EBF03286878012830D16978306804F1380217F0CDFB8146CD
:203BA000B9F1FF0F15D0306818FB09F948440D3017F0D2FA68B930684844C11D0D3017F0B8
:203BC000BFFA30684844C11D062204F1380016F0B5FA2878022818BF03280BD130680D30A3
:203BE00017F0BAFA30B93068C11D062204F1300016F0A4FA2468002CBED13648DAF80420FF
:203C000000784FF4805112F0BDFC10B18E2017F093FA87F4805047E0B80505D516F05EFDF0
:203C20002D4901200860FEE7780504D516F0F6FF87F4806038E0780405D5812017F07CFA68
:203C400087F4804030E0B9042DD5244C206810B1002014F087FD4FF0FF3020600020204C7F
:203C60000EF090F9216851F8202F684690471D494A6B086BC96A24681B4B019200900293AC
:203C8000ADF810106B46194A19491A4803921A4A07922568194AA8471949086003F082FBDC
:203CA00087F4005000E0002009B0BDE8F08F00BF22250020480F0020680F0020880E002072
:203CC000D70F0020780E00204DE50110184000204C0F0020C70F00207C052043380F0020C1
:203CE000200F0020382200209DA40100ADA40100883F0020503300201EFB0080EC0A00202E
:203D00001C0F00202DE9F041FF2806462AD116F0B1FD10F01F0F22D0042013F069FD08B189
:203D2000042016E0012013F063FD08B1012010E0022013F05DFD08B102200AE0102013F0A4
:203D400057FD08B1102004E0082013F051FD20B10820BDE8F04113F083BD14F003FD002093
:203D6000BDE8F08113F07CFD5FEA000814BFD8F804500025012E46F2A81740F6C4140BD035
:203D8000022E69D0042E00F0B780082E00F01081102E00F05781E2E7012013F029FD002869
:203DA0001EBFDFF86803006800281CBF8788BF00102013F01DFD18B3102013F051FD04000E
:203DC00002D066685EB900E00026022013F010FD28B1022013F044FD040018BF66686DB1EE
:203DE000012013F005FD002818BF002E06D0B068C11BA86815F0E4FB00282BD02046AFE793
:203E0000022013F0F5FC38B1022013F029FD040014BF666800260AE0042013F0E9FC50B196
:203E2000042013F01DFD040014BF66680026002DE4D001203EE1082013F0DAFC28B1082053
:203E400013F00EFD040005D052E0012013F0D0FC002885D0404683E7022013F0C9FC58B1F9
:203E6000AB480168AB48CA69017801EB81015318DF88674307F51667042013F0B9FC38B11F
:203E8000042013F0EDFC040014BF6668002622E0082013F0ADFC98B1082013F0E1FC04001C
:203EA00002D06668BEB900E00026012013F0A0FC88B1012013F0D4FC040018BF66680AE065
:203EC000012013F095FC50B1012013F0C9FC040014BF66680026002D90D00220EAE01020CF
:203EE00013F086FC30B1102013F0BAFC0400B1D06068EAE00220A9E7042013F079FC50B10D
:203F00008548016885484A69017802EB01139F89674307F51667082013F06AFC98B1082024
:203F200013F09EFC040002D06668DEBB00E00026012013F05DFCA8B3012013F091FC040014
:203F400018BF66682EE0012013F052FC38B1012013F086FC040014BF6668002622E01020B0
:203F600013F046FC98B1102013F07AFC040002D06668BEB900E00026022013F039FC88B156
:203F8000022013F06DFC040018BF66680AE0022013F02EFC50B1022013F062FC040014BF56
:203FA00066680026002D23D0042083E004204DE716F0BBFD08B1D0F89070042013F018FC94
:203FC00038B1042013F04CFC040014BF6668002632E0012013F00CFC58B1012013F040FC17
:203FE000002D044604D0082013F002FC00286ED104E7102013F0FCFB98B1102013F030FC29
:20400000040002D06668BEB900E00026022013F0EFFB88B1022013F023FC040018BF66684A
:204020000AE0022013F0E4FB50B1022013F018FC040014BF66680026002DD9D0082039E076
:20404000082003E7032016F072FD08B1D0F89870022013F0CDFB38B1022013F001FC002D08
:204060000446C5D01020BFE7042013F0C1FB38B1042013F0F5FB04000CBF0026666816E0EF
:20408000082013F0B5FB18B3082013F0E9FB040002D066685EB900E00026012013F0A8FBE3
:2040A00028B1012013F0DCFB040018BF6668002D9ED0102013F09CFB002818BF002E97D08A
:2040C000B068C11BA86815F07BFA002890D1C1E6012013F08DFBB0B1012013F0C1FB040041
:2040E00014BF66680026002D05D0102013F080FB002818BF002E3FF481AEB068C11BA868B6
:2041000015F05EFAE1E71020A0E600BF2C400020500F0020D80F0020540F0020D90F002068
:204120002DE9FE4F0422FF2101A815F0FDFFDFF86C63B0780024FF2800F0AD8115F0EAFF07
:204140000546B07816F092F9834605F217100178012908BF417800F0268105F17406B07B1F
:20416000022820D105F12E0105F12E008A8800899BF81C70A97905F12E0352080009DB8812
:204180000090C7F3C007002F09D0002016F0D0FF9BF81C0000F0F7008BF81C0002E03020AA
:2041A00016F0C6FFB47395F89201022808BF85F89241307F022808BF347705F59278B8F8AD
:2041C0000E1019B198F80C0009F0B8FD07200EF03EF86889B24F288105F58D73BA7AF87918
:2041E000397B80184118F87A0818797B4118009105F58D708188491C81800098B5F81A11D4
:204200004118A5F81A1105F58D71488810185880D8F80000F8B1A34995F806E00B681C212D
:2042200003F10E0C11FB0EFE1CF80EC030F81CE00099714420F81C101C2195F806C00E33EF
:2042400011FB0CFC13F80C3000EB4300B0F84A105218A0F84A2013F0B7FFF879DFF848928C
:20426000002804BFF87A002805D1387B002804BF787B00283FD09BF81B00ABF80E40C009B3
:20428000A2460FD09BF81C0000F00701022905DA411C61F302008BF81C0003E0A87900212F
:2042A00016F04DFC2989E8892C744118287FA981012804BF688CE883A979012207200DF00E
:2042C00080FC787858B101212977B078002804BFB07B002803D1307F08B9688CE88398F80E
:2042E0001400002868D0022804BFF87A00285ED188F8144060E0A979002207200DF061FCBB
:20430000EC839BF81C1011F0070F03D19BF81B00C00903D0A879002116F011FC287CB97A0E
:2043200005F58D7259B14FF0010A08B1E889A8812C74287F012826D1688CE88323E0D188BB
:20434000491C4FF0020AD180E8B1D9F80000AB7995F82EE000F1140168694FEA400C40F6A1
:20436000C4105B0110FB0ECC0CF5F66C41F803C0D9F80010A87901EB4010C17C01F0F0016C
:2043800041F00401C174A8892989814206D0884297D2081A41F2AB01884292DA108800280C
:2043A0000CBF3E210821284614F0DAFB73E0787A10B1022188F81410F87BC1070ED53869D7
:2043C0002968C86000F59070C860D9F80010AA7901F1140052010021815014E0D9F80000F3
:2043E000A97900F1140249015058C8F810002D48AB7901681C2001F108024343D058296859
:20440000C860EC832C77294A50690078810702D5B87B802800D181203070254991F820005B
:2044200018B12946012016F07EFB28460AF0ACFB02281BD1F079022805DB01AA1D4928468D
:204440000FF0BEFE0446284616F06EFE012822D020000DD0224601A9284610F09DFA38B957
:2044600028460AF091FB012802D114E0012812D00121284616F054FEFEF7F4FF01280AD07A
:20448000284611F05EFE16F09AFB009881B22A46504608F075FDBDE8F78F00BF780E0020EB
:2044A000980C0020980E00209C0E0020F4D40100703D0020F02700202DE9F84F054605F13D
:2044C0004C0AE87D9AF80010DAF8047081424FF00008C0F0918105F1280407F1900907F1C2
:2044E0007306C34640F08C80A87F7075E97FB175DAF808205278930710D5EA7FD30604D506
:20450000C01E707501F0EF01B175C7F874B086F800800022B17D01F0FE0168E1910608D4F4
:20452000E08B00B1E07E3076E08B00B1206AC9F80000DAF808004178CA070DD5E08B00281B
:204540001CBF206A002807D0C9F80000A17EE08B814238BF08463076E87FC1060CD5B86BCC
:20456000217800EB8100B863B86BA98CA63100EB81007867022002E0C7F874B000203070FA
:20458000DAF80800417811F0030F22D1007816F0D0FA5FEA00081CD098F8B000032809D1B8
:2045A000E87F810615D440F02000E877B07D40F020000DE068B9E87F81060AD500F0DF004E
:2045C000E877707DA0F112017175B07D00F0DF00B075E97F002201F0FC01284609F0CEF83F
:2045E000B8F1000F36D0E87F810633D598F8B00002282FD141462846BDE8F44F16F0A7BA59
:20460000E87F81060AD500F0DF00E877707DA0F112017175B07D00F0DF00B075DAF808002D
:204620004178C80717D5B07D717D00F0F700891E01F03F0182075CBF891D40F00200420668
:2046400044BF491E00F0BF00B0757175C9F800B086F81880D0E09AF80020E87D121AD2B238
:204660008907009240F18080012A07F140083ED1B86BA98C00EB8100B863A87F00F03F0038
:20468000A8777075E97FB175DAF8082053785A0703D5801F707501F0FD01B1750023717DE0
:2046A00098F80000E27E01F03F018A18C0F38001521C00F0030016F08FFD00F59B70A884E4
:2046C0001E2180B290FBF1F0B17D82B201F0FE01284609F053F886F800B0E08B00B1E07E51
:2046E0003076E08B00B1206AC9F8000084E0B86BA98C022A00EB8100B86325D1E87FC10719
:2047000006D5707D811F7175B07D00F0FE00B0750023717D98F80000E27E01F03F018A1837
:20472000C0F38001521C00F0030016F055FD00F59B70A8840022B17D01F0FE01284609F0B9
:204740001DF8607FA8F81A00617F0098491C081AC0B201281CDDB96BAA8CA63201EB820177
:2047600079670221317014E0B86BA98C00EB8100B863617F0098081AE97FCA06C0B207D5A2
:20478000B96BAA8CA63201EB820179670221317090B395F81F80A97FD9F80020E37E1A448D
:2047A000C9F8002028F00108DAF808205278530748BF28F00208920748BF28F008080128BF
:2047C00007D1207F3076C7F874B028F0100886F800B001F0C004404616F002FD00F03F000C
:2047E0002043707586F81680002208F0FC012846BDE8F84F08F0C2BFBDE8F18F2DE9F84FF1
:2048000005004ED0DFF8EC8298F80000092818BF0A2804D00B281CBF0C280D2801D1212008
:2048200065E1A878002116F04FFD040008BF4220F6D0B14FA978DFF8C4A2397098F8000015
:2048400010B9A8788AF8000004F14806F068417801F01201022902BF706900280C2012D09A
:20486000607AF0B1A07B012804D1B5F8030008B1812816DA6878402813DA204616F04CFCB9
:20488000B06808B9072032E1B561287801281FD1A07B00281CBF0128042819D19848007881
:2048A00008B9122023E197494A78824208BF0920F8D0F068417848070AD504F122018020EC
:2048C0004A7F04F1380106F011FC08B10B200EE1687808B911200AE12878DFF82C92DFF842
:2048E0002CB2012840F0B28000212173F166217A012903D1B16968794871F7E011200DF0F1
:20490000A6FC012000212072E1726173254609F0F3FD6060DBF8000080477D4A01461068C6
:2049200002E06A68426000680028FAD10846D9F8001088476968774848610021387816F0B8
:20494000EAF83978012211200DF03BF9F0684178C80605D5284601F00BFC010024D0C6E085
:20496000688C16F02AF985F82100F068007816F0E0F804001CBF94F8B000002807D0E87F4D
:2049800040F02000E877687D40F018006875284616F017F90100E2D134B194F8B0000128DC
:2049A00004BF284616F0CFF8F0684178C8071CD505F14204A18800291CBF3068002814D01B
:2049C00022788A4211D20F2016F0A2FB68B1F06801788DF800100F20A288ADF80120217885
:2049E0008DF80310694616F08FFB98F80000A0B94949087800281EBFF068417811F0030FBC
:204A000003D04648006816F07BFB112088F800000121297216F0D3F868E0284613F0D2F98E
:204A200000281CBFB168002960D0AA7B012A04D02A69808802EB800202E0486E2A6982180E
:204A400095F8B810104609F035FC4FE0207A00284CD0DBF80010884705463878012116F09F
:204A60005AF800202E4920720A683E7811460B68187A002802BF586D0378B34203D0C96815
:204A80009142F4D10BE0274E3078012807DD084612F05AFE15F03AFD3078411E31703A782B
:204AA0009AF80000824217D115F008FD6168884212D113F089FB40F2014016F079FB1A4961
:204AC0001A4A1B4808600121107809F037F9D9F800102846884709E0204616F00DFBD9F888
:204AE000001028468847204612F028FB0020BDE8F28F00BFC80F0020D60F0020D50F0020D9
:204B0000D40F0020780E00203C260020382600204C0F0020C1800000880E00206C0F0020DF
:204B20002C400020A7400020480F0020C70F0020AD8D00002DE9FE4FDFF81883D8F8046032
:204B40001EB9BDE8F74F16F0D3BA3078DFF80893C24FDFF80CA3012818BF02280AD004281F
:204B60001CBF0828102805D0402818BF802800F09F8067E115F084FE0028FAD0012012F043
:204B800037FE20B1012012F06BFE12F0F9FD082012F02EFE20B1082012F062FE12F0F0FDEB
:204BA0003078FFF7AFF8050014BF6C6800249AF80100002850D015F0FEFF15F0ABFA06460D
:204BC00030680090D0F804B0B0798AF80300CCB10099284615F0EDFF022813D02978012936
:204BE00002D008290CD02DE128B916F07DFA00F5E8504C30A060012088F8020011211BE1F0
:204C0000082016E10098017880290CD10820954938700A78DBF81400012A1ABFD9F82410BE
:204C20000978012113E007203870B07915F01EFC0446207BC10748BFB0795AD48948017872
:204C4000DBF8140001291CBFD9F824104978C172B0798AF80200B9E0002D12D02878AE428A
:204C60000AD1012818BF082802D1002C03D1EEE0002013F077FDE0E0012803D0082800F015
:204C8000D780DFE0002CF2D016F02EFA0146A06801F5C241A83114F093FC28B916F024FA29
:204CA00000F5E8504C30A060112038700121BCE09AF80100002800F08B8015F07CFF15F079
:204CC00029FA054628680090D0F804B09AF8020015F020FA0190A8798AF8030031784029CE
:204CE00011D1A87915F0C2FB0446207BC1070AD5A87915F00FFA052113F032FF207B00F04F
:204D0000FE002073A3E015F0B5FD10F01F0F3AD0012012F06DFD20B1012012F0A1FD12F06F
:204D20002FFD082012F064FD20B1082012F098FD12F026FD98F80200FEF7E4FF0646746875
:204D40000CB3009915F035FF02281CD03178012902D008290DD013E028B916F0C5F900F56C
:204D6000E8504C30A06011203870012188F8021004E0082088F802001221397030465DE0D5
:204D8000002013F0EFFC0198A8421FD0009935480A78802A0BD10821397000780128DBF82F
:204DA00014001ABFD9F82410097801210AE007223A7000780128DBF814000EBF0121D9F859
:204DC00024104978C172A8798AF80200009835E015F050FD10F01F0F39D0012012F008FDA8
:204DE00020B1012012F03CFD12F0CAFC082012F0FFFC20B1082012F033FD12F0C1FC98F81F
:204E00000200FEF77FFF054628786C68012802D008280DD01BE0D4B116F066F900F5E85044
:204E20004C30A06001211120387088F8021004E06CB188F80200122139702846BDE8FE4FAA
:204E400008F04EBBBDE8FE4F002013F08BBCBDE8F78F00BFB03F0020F4D40100C80F00203C
:204E6000780E0020CC0F00202DE9F04F8FB0074618984FF0000C002A01938DF8200000F062
:204E800084810AA80E464FF0200A002400F1100ECDF800E0114611F8010B25280E910CD092
:204EA000002800F06E81022EC0F00D81013E002F00F0088107F8010B05E15378901C0E9090
:204EC0002D2B07D14FF00109D01C8DF80D900E90937803E04FF000098DF80D90302B05D124
:204EE0000121069110F8011B0E9002E01946CDF818C04FF0FF322A29CDF808C004922CD176
:204F0000019D29680A1D2A60D1F80080CDF80880B8F1FF3F10F8011B0E9007DC4FF0010946
:204F2000C8F100088DF80D90CDF808802E2925D1CDF810C0024612F8011B2A290E9220D10D
:204F4000019D29680A1D2A60096821EAE17BCDF810B0417802300E9027E04FF00008A1F1AB
:204F60003002092AE0D810F8012B08EB880501EB4501A1F130080E901146F0E74FF0FF3B1F
:204F800013E04FF0000BA1F1300009280AD812F8010B0BEB8B0501EB4501A1F1300B0E92C4
:204FA0000146F0E71046CDF810B0302B41F0200306BFCDF81880424600226C2B06D10121ED
:204FC0008DF80C1010F8011B0E9001E08DF80CC0CDF81CE00AAB6929CDF814C0099301D02E
:204FE00064290DD1019B1868011D19606FF0090301689345C4BFCDF818B05A4670461EE083
:2050000075290AD0A1F16F03092B5FD8DFE803F005876A6AA26A6A6A6A05019D2868031DF2
:205020002B600823782908BF1023752908BF0A23016870469345C4BFCDF818B05A460DF0E9
:205040009BFCDDF800E00990AEEB00000590A8EB00004FF0000CB9F1000F02901CD109E03E
:20506000022E06D3013E1FB107F801AB029800E00027013401380290F2DA0DE00998022E42
:2050800007D3013E27B1007807F8010B099800E000270130013409900598411E002805913B
:2050A000ECD19DF80D0078B10298013802900BDB022E05D3013E17B107F801AB00E000275C
:2050C0000134F1E7002701340E9AE3E6632909D1019A1068011D11600168012005908DF84A
:2050E0002810B4E70138022E0E9048D36FF0004086426FF0004038BF3046B34538BF0BF15D
:20510000010004900EA9019A02AB05F0C9F8DDF800E09DF80D90DDF80880059897E7019A4B
:2051200010231068011D11600821082206919DF820100029016870460DF01EFCDDF800E072
:20514000A0F101014FF04002099100F8012CAEEB01007BE7019A1068011D11609DF8201019
:20516000006800290B49002808BF0846099015F039FA834538BF5846DDF800E066E70020BD
:2051800065E70FB100203870A44660460FB0BDE8F08F00BF7CC601002DE9F04F89B0A94E41
:2051A0000546A94F30780328387040F0B78000203070387002AC204615F054FC2046002172
:2051C00014F09AFAA14CB8602E21204614F0D0FF4FF0FF30A0822061E06013F063F90020DA
:2051E000294610F0B7FD07F11001F86015F016FCD7E90512964DB1FBF2F0C0B2022828BF49
:20520000022020702870B2F5005F40F08580B1EB403FC0F08180F96800297DD04FF6FF71B1
:2052200000274FF6FC784FF0885B618089496160874276D2FEB2002108AA0423304615F0C2
:2052400065F807EB470004EB80090898CA4600F47C012AF8160FB1F5402F04D000F07F413F
:20526000B1F1164F47D1C0F3014189F819106FF0FD0151FA80F1022902D3C1B27E2903D169
:205280001021A9F81C1036E003A812F0F1F8304600214FF088524FF400534FF088544FF4C0
:2052A000005515F033F84DB1043D05EA080000F1885450F80B00411CF5D001E02068002563
:2052C00001210126CAB2042A06D8C2B2FF2A18BF0E460131000AF5E72060604803990068F1
:2052E00042685F48904755FA86F0584C584DA9F81C009AF80000C0B2702807D0782803D0D5
:20530000FE2805D07C2804D1E77002E0277100E0A770287801378BE70120307009B0BDE8E8
:20532000F08FE178FF2904D0DFF81C81254601242BE02179FF2905D0DFF80C81E1702546D3
:20534000022422E0A178DFF80081FF290ED00131B1FBF0F202FB101000EB400104EB810134
:20536000898B09B1E070EAE7FF20A070254600240020EC700AF0FCFE98F8001008437E2186
:2053800088F80000002012F063FBA878FF2813D12F48E97800780131B1FBF0F202FB1010B5
:2053A000A8700AF0E5FE98F800100843FE2188F80000A87812F04CFB2748EA78022C047092
:2053C00002EB42006A7005EB8000818BE9802AD0012C2ED11D4F03AD002488B2182828D304
:2053E0000739D0B22A4689B20BF036FF9DF81700400718D5F888BDF81A10FE782A460323C5
:205400000094401A073881B2304605F04FFDFA7820B9964202D1BDF8181069B9964208D0D0
:205420000A48C188D9E7094901204871002000F057FD98F8000071E79DF81C0010F00AFAE4
:20544000F7E700BF4327002024250020183D0020B3400020FF000020B4400020D801001018
:2054600000400340F8B5144600254FF48067DFF89862C21B84B006F1880337D0921E3CD02C
:20548000521E44D0521E4AD0521E50D0521E54D0521E00F07A80921E00F07C80D21E00F004
:2054A000AC80521E00F0B780921E00F0C080521E00F07B80521E00F0C180521E00F0CF809E
:2054C000521E00F0D280521E3ED0521E56D0521E4BD0921E00F0DE80921E00F0E280521E0B
:2054E00000F0ED80521E00F0F98000E101290FD12078022817DC707003E1012908D1207877
:20550000022810DA0028B070F6D1B074E3E0012940F0EB802078052805DAF070F1E00129BD
:205520006CD12078022880F2E0807073E9E0102964D110222146754814E001295ED1207845
:20554000022863DA3071DCE0012957D1207802285CDA00287071F6D00120F074602206F170
:205560002801184614F0EAFDCBE00129FCD12078022802DAB07114F0A9FFC2E001293DD1D2
:205580002078022842DAF072BBE0012936D12078F073B6E0002931D115F05EFE10B9FAF728
:2055A00084FF1DE00120F075ABE0072926D10622611C02A814F028FC00950023217801AAC0
:2055C00002A809F0B5FDB0B9F07A10B915F044FE10B1F07A012808D19DF80400FAF776FF67
:2055E0000546502014F03CF81EE0716A9DF804200120885485E0342583E0012975D1717CAB
:205600002078022903D0C11F0A2902D36DE010286BD1307475E0012967D1B17D2078B07505
:20562000002908BF01286CD1FAF7C9FE69E001295BD12078052858DA307562E0012954D190
:205640002078022851DC00284FD07074022803BF102030740120002015F042FD51E0012990
:2056600043D1207814F010FA4BE0707900283CD1602908D1002C38D060222146184614F046
:205680005DFD012004E001292FD1002C2DD02078F07436E0012928D13CB320781C490870BF
:2056A0002FE011BB15F0D8FD30B9FAF7A6FF0546502013F0D5FF24E00120307621E001292E
:2056C00013D12178022910DA012904BFB078002816D0B174084614F001FF12E0012904D1AD
:2056E00020780228B8BF70750BDB182509E00F2806DA022904D1218811F04CF9054600E04F
:205700000225284605B0F0BDB41C0020283E0020AE4000202DE9F04F8DB0044600209A4632
:2057200016460F46CDE90B00CDE909008748856880460CF017F81C2803D00CF013F81B284A
:205740001BD1308840F60201884218BFB0F5C15F03D1F07B022810D93EE043F6070188428B
:205760000BD196F82400032807D33069784940F0806020F0604088422ED100206FB366B358
:20578000387825FA00F0C00726D03046002115F0E2F97048C4E90176006880B109A8009060
:2057A0000CA90BAA0AAB304605F0F6FF0B980B214FF6FF72502313F0A3FDFF280CD014F0C8
:2057C0006FFF654F06467878012802D840B1012070E0304615F013F900200DB0BDE8F08F7E
:2057E00005F04EFF5D480DF10409016841F0020101605B48C8F80000484614F0D7FDDFF819
:2058000064B15A494A469BF801009BF8005003905548283012F09EF9554856494A4612F0DA
:2058200099F9484614F04AFDDFF84C81534A19214B460295404611F00BFA514A08F11C001E
:205840001A214B4611F004FA4E484F4915F0A5F84E484F4915F0A1F84E48006810F4402F70
:2058600006D04D4A07F128000421002313F018FB9BF8020010B10D2009F0B4FC08F14000D8
:2058800014F01EFB08F1380014F01AFB4349002007223876B8843862386181F86020052190
:2058A000C7E902103E49F96138700420002113F0A7FD78782C4941F8204001307870304624
:2058C00015F09DF8BAF1000F06D10DF1040A35492022504615F09AF9DAE90012BAF810000C
:2058E000DAE90635002AB2FA82F608BF40F6C4126261216060832563760926764FF4FA760C
:20590000C4E9036201226276274AC4E90722C4E90923DAF80C0000B12062DAF8140000B1B2
:205920006062DAF8080000B1E06104F13800C82114F01EFC04F15000002113F091FD1B494A
:2059400004F1B80015F029F8204646E7CC2108400F00000580270020CC1F0020002009405D
:20596000110000E0FCD80100D42100201D990100403C0020B9E500009C220020AD39010096
:2059800039230100FC3B0020C58E0100B83B0020C9980100B44F00502D520100003900205E
:2059A000FDBE000028D701001B7A010035AA01002DE9F84F012000909A4E9B489B4F027879
:2059C000112A02D0122A0DD026E1994C2078002115F07AFC97490546087810B100220A7079
:2059E000B7E0002D00F00B819348DFF850A2DFF8508238600122217811200CF0E2F8696DE9
:205A00004B78286DDC0641F6080240F1E180044641F20443B4F802C04FF4A0599C451FBF4C
:205A2000B4F81AE09E45B4F832C09C451CD095F80EC0BCF1010F04BFB5F89EE09E4513D0A6
:205A4000B4F802E041F20A439E451FBFB4F81AB09B45B4F832E09E4506D0BCF1010F04BF2A
:205A6000B5F89EC09C4503D13380C7F800A072E0002340F2FE3B4FF0180C0CFB03FCA44423
:205A8000BCF802E0A6F800E0BEF1010FF3D0BEF1000F2CD0AEF1020EBEF1010F27D9BEEB9F
:205AA0000B0E1AD04FF48063BEEB03032BD04FF4406BB3EB0B031AD09B1E012B17D91B1F80
:205AC00015D040F2FA3BB3EB0B0337D05B1E2AD0D81E18D0001F16D035E0B4F800C040F6BA
:205AE000010EF44503D15B1C022BC4DD33E0A87B01281CBF0428A6F80090C7F80080012051
:205B00000AF04FFF27E0A87B012806BF41F20241ACF80210ACF80290308890420BD100203D
:205B20000AF03FFF07E04978CA064CBF816CC16E086800210171C7F800800CE0002012F03E
:205B400011FE832003E0002012F00CFE842015F0B7FB012063E03868504557D1A06C0168F3
:205B600001F10805A91C2878C0F38012402005F0BDFA002801BFA06C0168087903281ED178
:205B800094F86C0001281AD1D5F80E0000281CBF288B002813D095F8220010F0E00F0ED1E0
:205BA00005F11E0015F098FA012808D1688B298BAA8B401C89004843B0EB021F26DBA6F891
:205BC0000090C7F80080A06C0168002008711DE0418E318041F20443C91A01D0891F01D1C3
:205BE000D04609E0408890420CBF002001200AF0D8FE41F206403080C7F8008006E014F0DE
:205C000094FF58B1C0880F493080396001210E4A107808F093F801E0002000900098BDE8AC
:205C2000F28F00BF9A0F0020C80F0020480F0020D50F0020AB400020756B02104113000098
:205C4000AD8D00005B3E0100C70F002082492DE9F043824C824E20700A22002008600D2354
:205C600080484FF40A7102704380818085B07E480660B77E7D480770FF2FF17E4170327F97
:205C80008270737FC370B57F0571F67F467108BFFF2914D1FF2A08BFFF2B10D1FF2D08BF55
:205CA000FF2E0CD172490A7802704B7843708A788270CB78C3700A790271497941716D492B
:205CC00002786D4D6D4E6E4F0A7043784B7082788A70C378CB7002790A714079694A4871A3
:205CE000FF2028706870A870E87028716871002065490880F06B6549407808706449F06B9C
:205D0000007808701388634863490380F06BC06C08606249F06B90F83C0008706049F06BE9
:205D200090F83D0008705F49F06B90F860000870F06B406901795C484A1E0270F06B5B49C8
:205D4000C0783870F06B8069086008B912F00AFDF06B5749C069086008B912F003FDF06B43
:205D6000416D54480C2214F0E9F915F0B1F9F06B5149006A086008B912F0F4FCF06BDFF86A
:205D80003C81406AC8F8000008B912F0EBFCF06B4B49806A086008B912F0E4FCF06BC06DC6
:205DA00000B101200AF0E3F900F0CCFF07280AD105F02CFA20784FF4804107F0BFFF0020EA
:205DC00012F0D0FC44E03F480168884781460DF0A1F8D8F8000001688847684614F0EEFA13
:205DE000D8F8002004208DF80000694652F8043F00209847344908600FF080FBF068334A9B
:205E000001883878324B014311804846196888470C21304814F0EBFE284615F055F915F0C1
:205E20004FF92D4800214FF6FF72016082808171F06B90F858102948006814F00FFB012125
:205E4000FF2014F068FE20784FF4005107F076FF05B0BDE8F08300BF380F0020C70F002038
:205E6000B64F0050700E00203C0F0020400E0020E8120050500E0020480E0020F4D401004F
:205E8000C40F0020322600209E0F0020C60F0020D40F00209440002020400020A840002056
:205EA000A9400020A6400020CB0F0020200F0020240F0020A43F0020280F00202C0F002082
:205EC000300F00203826002024400020A00F00203C260020FC0D0020800E002038400020A1
:205EE0002DE9F04F97B09D4E8246706818B18047002800F0D6809A4F012000210423002407
:205F00007D78F87397F8029008AA284614F0FEF9089800F44030B0F5403F03D178790028D0
:205F200000F0C08028460621F8224FF0F80813F0A1FC05EB450407EB840080F818809DF84F
:205F40002000702803D02846702111F081FDCDF810A0069508AA4846002104234FF0000859
:205F600014F0D4F99DF82000FE2803D04846FE2111F06EFD48460621FE22FE2513F07AFC18
:205F800007F1160086F8008097F80180BA78CDF8149000EB8401C9880192798209EB4901BD
:205FA000039100EB810101F8025F029108EB480100EB8101B1F806B002EB420100EB81004F
:205FC00030F8061F079100900EA811F051FA0FAD1FFA8BF7172F5CD3307800285BD1B1468B
:205FE000ABF10706404609AAC246B1B20BF034F99DF82E00962810D1BDF8324004F110009E
:20600000B8420AD8371B9DF82D20214653461FFA87F840460DF0C2F800B3ABF1010B4E46AC
:20602000D0465C46A0B2162833D93628A4F1160740462A4688BF2027E41BBBB2A1B214F0B5
:2060400065F93804EED015FA87F010F8010C962801D0013FF5E707EB040BB9E79DF82F003D
:20606000C10701D1800703D4BB464E46D046AFE70734079E3D49A3B213FA86F00A1A4146FE
:206080005046D04614F042F92644BB4607964E469EE7307850B133480E990068426832489D
:2060A0009047002420B217B0BDE8F08F079F019C1021C7F50052A7F1100083B2C1F2001204
:2060C000204611F0F1F9317808430E99307025480068426824489047214D00980123B5F99A
:2060E0001220697B07802046A5F814B02F8212F0C3F9B5F91420A97B2046022312F0BCF985
:20610000049A002A08BF1022288A7C21C0F500509042B8BF7821059C204611F099FC069F46
:2061200038460AF025F8307020460621FC22FC2613F0A0FB0298FE21AF70EC706C70067039
:20614000039805EB8000808BE880384611F080FC00206871E888C0F50054A3E72425002061
:20616000183D0020D801001000400340002000112DE9F84F0446002000900CB912F0F2FA03
:2061800004F1500569462E68204607F06BFF08B9072015E1A04641F28839DFF828B2DFF869
:2061A00028A2002469684A7A1820604301233718A3401A420AD098F80E103AF8110038804C
:2061C00000211BF80420BA73F97302E040F6010038800021798007F118007860387B00F058
:2061E000EF00387340F08000387398F80E10012916D1002C0CBF02200520397B01F0F00117
:206200000843387324B914F06FFF00F57A6000E04846B860787B00F0F00040F0020017E0E8
:20622000002C0CBF0221002100F0F0000843387324B914F059FF00F57A6000E00020B8602D
:20624000022C0CBF01200220797B01F0F00108437873641C06F14800386106F16801032C0F
:2062600079619FDB98F80E000024012808F1A80718D108F19C0070631822314613F05EFFD5
:2062800006F118002865C5F85490397801F0F00141F005013970787800F0F00040F002004C
:2062A000787000E07463B068C8F8100047480178397414F08DFFB064454881690978CA0735
:2062C0004CBF1F210F2182691278930748BF41F0200182691278530748BF41F040018269A8
:2062E0001078020748BF41F0800106F14C02117054706968887C00F0030008F13E0150700A
:206300000B7863F3820050704978947061F3C3005070D47040F0100050703465746508F117
:206320003800F06598F80E00012818BF042815D0A86830B1B0F803009070A968D1F80500A6
:206340003065E86830B1B0F80300D070E968D1F8050070651F4801684868F06508F130009A
:20636000B065D07D00F0EF00D07540F08000D07500F0F00040F00600D0752869B0F803000B
:2063800000280EBF144849F64041484370661349087838B15078117840F0400001F0FE0115
:2063A000507011700E498B78507859064CBF40F0200000F0DF005070009806F0F5FC002092
:2063C000BDE8F28F506E0210F46B0210A5400020F4D401006C0F002000204E00880E0020C9
:2063E000C00C0020F8B58D488D4D01782A788A4200F012816A68002400E0641C8C4280F255
:2064000008814FF4D0736343134418790028F4D1E0B213F07FFE01210171002242714262D3
:2064200000F161018471012200F168034A711A71012400221A609A6000F1900602814281C7
:20644000047480F8392082610277C283327000F592749A76227580271F739A730027FF2280
:20646000DF741A7600F20D131F70DF70BC46BE4600F5897783F801C083F802E0A7F800C056
:20648000A7F802C087F805E000F1E70386F804C083F800C083F801C000F1EC03C3F800C048
:2064A000C3F804C083F80AE083F80CC083F808C083F80DC083F80EC083F80FC0A7F808C02C
:2064C000A7F80AC0A7F80CC0A7F80EC047F23057A76100F5C676C4F800C02273A4F80EC007
:2064E00084F81CC084F81DC0A2770127B7720227F77286F80EE086F80CC04A4FDFF828E1C0
:206500003F78777386F806C084F80AC084F804C084F805C084F806C084F807C084F808C006
:2065200084F809C000F5B374404F84F800C086F800C04FF01B0C3F88E7803D4F3F88278162
:20654000BEF8007067803B4F3F88A780A4F80AC04FF4A477E7812782A4F80CC0E782278366
:20656000A4F812C0A4F814C06783A783E78327846784A784A6F802C001273771002407198A
:20658000641C042C87F87720F9DB2B4A14780C7057784F7094788C700446D778CF701279EB
:2065A0000A710021254A50186718407887F8FD00491C0829F7DB587C214900F0FB00587458
:2065C000316100201874A07913F050FF0646A0790DF0B5FE1B480178307C717300F0FC00A5
:2065E00030740022B069F28100F0004040F4853040F04000B061307F00F0F80030772878D1
:20660000401C2870C0B2012804BFA079A8702046F2BD002012F0A6F80020F2BDD40F002050
:20662000780E0020C50F00208A0F00208C0F0020980F0020960F0020D03F0020C00C0020A5
:206640004DE50110142800202DE9FE4F8C4802780024521E032A4FF001090AD9103A40F083
:206660000A81884C2078002114F02EFE040000F0038114B9002012F075F8606D4178C806AA
:20668000216D4CBF886CC86E0168DFF8FC817F4D7F4E01F1080A06220AF1020101A813F00B
:2066A0004DFD9AF80070DFF8ECA107F00F01C7F3801003298DF800004FF01E0B2DD101A918
:2066C00014F07EFD002827D0606D807C012818BF032821D1316801A814F06EFDFF281BD073
:2066E0001BFB00FB306810F80B205844411C286814F0E2FC98F8001088420DD030685844D8
:20670000C11D286801AA14F0D3FC30685844062201A9C01D13F012FD9DE007F00F000528E8
:20672000FAD19DF8000001A914F04AFD7F0980B3316801A814F040FD616DFF2821D0897CDB
:206740001BFB00FB022918BF03290BD1306810F80B205844411C286814F0AEFC98F800107C
:20676000884278D030685844C11D286801AA14F09FFC30685844062201A9C01D13F0DEFC5B
:2067800024E04878C20670D5887CF8B1012862D11CE03B48017802295DD19DF80010306891
:2067A00001AA14F0C9FDFF2855D031681BFB00FB01EB0B00427F012A04D00D3014F0CCFCAE
:2067C000002848D040F2014014F0F2FC606D4178C8064AD530498878410605D5F80703D431
:2067E000206D41F20A4102E0206D41F2044141804183418629480180206D816C0A68816C90
:2068000008680079032802F1080724D1D7F80E0000281CBF388B00281DD097F8220010F004
:20682000E00F18D107F11E0014F056FC012812D1788B398BBA8B401C89004843B0EB021FD0
:2068400009DA174A174918488AF8009011600121007807F073FA606D4178CA0605D59AF8F1
:20686000000048B9216D886C01E0216DC86E01680020087100E0A1464846BDE8FE8F00BFA8
:20688000C80F0020D50F0020A84000206C0F0020680F0020AB400020C00C00209A0F002003
:2068A000480F002041130000C70F00202DE9F0470D4629048F4EDFF8408240F1F2808F4F53
:2068C00038780CF0E1F9040018D021780120B02917D0B12908D0C22900F0B580D02904BF4E
:2068E0002046FBF7BFF8D2E0207920B92289E1886088F9F7EAFB204612F049FF85F400402B
:20690000F6E02179787A012910D009294CD01E2900F08D807D2908BF002806D16088FAF734
